{
  "contractName": "Voting",
  "abi": [
    {
      "inputs": [],
      "stateMutability": "nonpayable",
      "type": "constructor"
    },
    {
      "anonymous": false,
      "inputs": [
        {
          "indexed": false,
          "internalType": "uint256",
          "name": "candidateId",
          "type": "uint256"
        },
        {
          "indexed": false,
          "internalType": "uint256",
          "name": "voteCount",
          "type": "uint256"
        }
      ],
      "name": "ElectionResult",
      "type": "event"
    },
    {
      "inputs": [
        {
          "internalType": "uint256",
          "name": "",
          "type": "uint256"
        }
      ],
      "name": "candidates",
      "outputs": [
        {
          "internalType": "uint256",
          "name": "id",
          "type": "uint256"
        },
        {
          "internalType": "string",
          "name": "name",
          "type": "string"
        },
        {
          "internalType": "uint256",
          "name": "voteCount",
          "type": "uint256"
        }
      ],
      "stateMutability": "view",
      "type": "function"
    },
    {
      "inputs": [],
      "name": "candidatesCount",
      "outputs": [
        {
          "internalType": "uint256",
          "name": "",
          "type": "uint256"
        }
      ],
      "stateMutability": "view",
      "type": "function"
    },
    {
      "inputs": [],
      "name": "electionAdmin",
      "outputs": [
        {
          "internalType": "address",
          "name": "",
          "type": "address"
        }
      ],
      "stateMutability": "view",
      "type": "function"
    },
    {
      "inputs": [],
      "name": "totalVotes",
      "outputs": [
        {
          "internalType": "uint256",
          "name": "",
          "type": "uint256"
        }
      ],
      "stateMutability": "view",
      "type": "function"
    },
    {
      "inputs": [
        {
          "internalType": "address",
          "name": "",
          "type": "address"
        }
      ],
      "name": "voters",
      "outputs": [
        {
          "internalType": "bool",
          "name": "hasVoted",
          "type": "bool"
        },
        {
          "internalType": "uint256",
          "name": "votedFor",
          "type": "uint256"
        }
      ],
      "stateMutability": "view",
      "type": "function"
    },
    {
      "inputs": [
        {
          "internalType": "string",
          "name": "_name",
          "type": "string"
        }
      ],
      "name": "addCandidate",
      "outputs": [],
      "stateMutability": "nonpayable",
      "type": "function"
    },
    {
      "inputs": [
        {
          "internalType": "uint256",
          "name": "_candidateId",
          "type": "uint256"
        }
      ],
      "name": "vote",
      "outputs": [],
      "stateMutability": "nonpayable",
      "type": "function"
    },
    {
      "inputs": [
        {
          "internalType": "uint256",
          "name": "_candidateId",
          "type": "uint256"
        }
      ],
      "name": "getCandidate",
      "outputs": [
        {
          "internalType": "string",
          "name": "",
          "type": "string"
        },
        {
          "internalType": "uint256",
          "name": "",
          "type": "uint256"
        }
      ],
      "stateMutability": "view",
      "type": "function"
    }
  ],
  "bytecode": "0x608060405234801561000f575f80fd5b50335f806101000a81548173ffffffffffffffffffffffffffffffffffffffff021916908373ffffffffffffffffffffffffffffffffffffffff1602179055505f600481905550610f21806100635f395ff3fe608060405234801561000f575f80fd5b5060043610610086575f3560e01c80633477ee2e116100595780633477ee2e1461010057806335b8e82014610132578063462e91ec14610163578063a3ec138d1461017f57610086565b80630121b93f1461008a5780630aa05677146100a65780630d15fd77146100c45780632d35a8a2146100e2575b5f80fd5b6100a4600480360381019061009f91906106a7565b6101b0565b005b6100ae61039b565b6040516100bb9190610711565b60405180910390f35b6100cc6103be565b6040516100d99190610739565b60405180910390f35b6100ea6103c4565b6040516100f79190610739565b60405180910390f35b61011a600480360381019061011591906106a7565b6103ca565b604051610129939291906107dc565b60405180910390f35b61014c600480360381019061014791906106a7565b610476565b60405161015a929190610818565b60405180910390f35b61017d60048036038101906101789190610972565b610535565b005b610199600480360381019061019491906109e3565b610637565b6040516101a7929190610a28565b60405180910390f35b60015f3373ffffffffffffffffffffffffffffffffffffffff1673ffffffffffffffffffffffffffffffffffffffff1681526020019081526020015f205f015f9054906101000a900460ff161561023c576040517f08c379a000000000000000000000000000000000000000000000000000000000815260040161023390610a99565b60405180910390fd5b5f8111801561024d57506003548111155b61028c576040517f08c379a000000000000000000000000000000000000000000000000000000000815260040161028390610b01565b60405180910390fd5b60405180604001604052806001151581526020018281525060015f3373ffffffffffffffffffffffffffffffffffffffff1673ffffffffffffffffffffffffffffffffffffffff1681526020019081526020015f205f820151815f015f6101000a81548160ff0219169083151502179055506020820151816001015590505060025f8281526020019081526020015f206002015f81548092919061032f90610b4c565b919050555060045f81548092919061034690610b4c565b91905055507fb3a4b9b30012d801334a37bde7824fd37cdd2b459e187164dc2f9d848b04bde58160025f8481526020019081526020015f2060020154604051610390929190610b93565b60405180910390a150565b5f8054906101000a900473ffffffffffffffffffffffffffffffffffffffff1681565b60045481565b60035481565b6002602052805f5260405f205f91509050805f0154908060010180546103ef90610be7565b80601f016020809104026020016040519081016040528092919081815260200182805461041b90610be7565b80156104665780601f1061043d57610100808354040283529160200191610466565b820191905f5260205f20905b81548152906001019060200180831161044957829003601f168201915b5050505050908060020154905083565b60605f60025f8481526020019081526020015f2060010160025f8581526020019081526020015f20600201548180546104ae90610be7565b80601f01602080910402602001604051908101604052809291908181526020018280546104da90610be7565b80156105255780601f106104fc57610100808354040283529160200191610525565b820191905f5260205f20905b81548152906001019060200180831161050857829003601f168201915b5050505050915091509150915091565b5f8054906101000a900473ffffffffffffffffffffffffffffffffffffffff1673ffffffffffffffffffffffffffffffffffffffff163373ffffffffffffffffffffffffffffffffffffffff16146105c2576040517f08c379a00000000000000000000000000000000000000000000000000000000081526004016105b990610c61565b60405180910390fd5b60035f8154809291906105d490610b4c565b9190505550604051806060016040528060035481526020018281526020015f81525060025f60035481526020019081526020015f205f820151815f015560208201518160010190816106269190610e1c565b506040820151816002015590505050565b6001602052805f5260405f205f91509050805f015f9054906101000a900460ff16908060010154905082565b5f604051905090565b5f80fd5b5f80fd5b5f819050919050565b61068681610674565b8114610690575f80fd5b50565b5f813590506106a18161067d565b92915050565b5f602082840312156106bc576106bb61066c565b5b5f6106c984828501610693565b91505092915050565b5f73ffffffffffffffffffffffffffffffffffffffff82169050919050565b5f6106fb826106d2565b9050919050565b61070b816106f1565b82525050565b5f6020820190506107245f830184610702565b92915050565b61073381610674565b82525050565b5f60208201905061074c5f83018461072a565b92915050565b5f81519050919050565b5f82825260208201905092915050565b5f5b8381101561078957808201518184015260208101905061076e565b5f8484015250505050565b5f601f19601f8301169050919050565b5f6107ae82610752565b6107b8818561075c565b93506107c881856020860161076c565b6107d181610794565b840191505092915050565b5f6060820190506107ef5f83018661072a565b818103602083015261080181856107a4565b9050610810604083018461072a565b949350505050565b5f6040820190508181035f83015261083081856107a4565b905061083f602083018461072a565b9392505050565b5f80fd5b5f80fd5b7f4e487b71000000000000000000000000000000000000000000000000000000005f52604160045260245ffd5b61088482610794565b810181811067ffffffffffffffff821117156108a3576108a261084e565b5b80604052505050565b5f6108b5610663565b90506108c1828261087b565b919050565b5f67ffffffffffffffff8211156108e0576108df61084e565b5b6108e982610794565b9050602081019050919050565b828183375f83830152505050565b5f610916610911846108c6565b6108ac565b9050828152602081018484840111156109325761093161084a565b5b61093d8482856108f6565b509392505050565b5f82601f83011261095957610958610846565b5b8135610969848260208601610904565b91505092915050565b5f602082840312156109875761098661066c565b5b5f82013567ffffffffffffffff8111156109a4576109a3610670565b5b6109b084828501610945565b91505092915050565b6109c2816106f1565b81146109cc575f80fd5b50565b5f813590506109dd816109b9565b92915050565b5f602082840312156109f8576109f761066c565b5b5f610a05848285016109cf565b91505092915050565b5f8115159050919050565b610a2281610a0e565b82525050565b5f604082019050610a3b5f830185610a19565b610a48602083018461072a565b9392505050565b7f596f75206861766520616c726561647920766f7465642e0000000000000000005f82015250565b5f610a8360178361075c565b9150610a8e82610a4f565b602082019050919050565b5f6020820190508181035f830152610ab081610a77565b9050919050565b7f496e76616c69642063616e6469646174652049442e00000000000000000000005f82015250565b5f610aeb60158361075c565b9150610af682610ab7565b602082019050919050565b5f6020820190508181035f830152610b1881610adf565b9050919050565b7f4e487b71000000000000000000000000000000000000000000000000000000005f52601160045260245ffd5b5f610b5682610674565b91507fffffffffffffffffffffffffffffffffffffffffffffffffffffffffffffffff8203610b8857610b87610b1f565b5b600182019050919050565b5f604082019050610ba65f83018561072a565b610bb3602083018461072a565b9392505050565b7f4e487b71000000000000000000000000000000000000000000000000000000005f52602260045260245ffd5b5f6002820490506001821680610bfe57607f821691505b602082108103610c1157610c10610bba565b5b50919050565b7f4f6e6c792061646d696e2063616e2063616c6c20746869732e000000000000005f82015250565b5f610c4b60198361075c565b9150610c5682610c17565b602082019050919050565b5f6020820190508181035f830152610c7881610c3f565b9050919050565b5f819050815f5260205f209050919050565b5f6020601f8301049050919050565b5f82821b905092915050565b5f60088302610cdb7fffffffffffffffffffffffffffffffffffffffffffffffffffffffffffffffff82610ca0565b610ce58683610ca0565b95508019841693508086168417925050509392505050565b5f819050919050565b5f610d20610d1b610d1684610674565b610cfd565b610674565b9050919050565b5f819050919050565b610d3983610d06565b610d4d610d4582610d27565b848454610cac565b825550505050565b5f90565b610d61610d55565b610d6c818484610d30565b505050565b5b81811015610d8f57610d845f82610d59565b600181019050610d72565b5050565b601f821115610dd457610da581610c7f565b610dae84610c91565b81016020851015610dbd578190505b610dd1610dc985610c91565b830182610d71565b50505b505050565b5f82821c905092915050565b5f610df45f1984600802610dd9565b1980831691505092915050565b5f610e0c8383610de5565b9150826002028217905092915050565b610e2582610752565b67ffffffffffffffff811115610e3e57610e3d61084e565b5b610e488254610be7565b610e53828285610d93565b5f60209050601f831160018114610e84575f8415610e72578287015190505b610e7c8582610e01565b865550610ee3565b601f198416610e9286610c7f565b5f5b82811015610eb957848901518255600182019150602085019450602081019050610e94565b86831015610ed65784890151610ed2601f891682610de5565b8355505b6001600288020188555050505b50505050505056fea2646970667358221220e953519ecf3a19399680a8daa0290988225d6164c93880d04089952b28acbe5464736f6c63430008150033",
  "immutableReferences": {},
  "source": "// contracts/Voting.sol\r\npragma solidity ^0.8.0;\r\n\r\ncontract Voting {\r\n    struct Candidate {\r\n        uint id;\r\n        string name;\r\n        uint voteCount;\r\n    }\r\n\r\n    struct Voter {\r\n        bool hasVoted;\r\n        uint votedFor;\r\n    }\r\n\r\n    address public electionAdmin;\r\n    mapping(address => Voter) public voters;\r\n    mapping(uint => Candidate) public candidates;\r\n    uint public candidatesCount;\r\n    uint public totalVotes;\r\n\r\n    event ElectionResult(uint candidateId, uint voteCount);\r\n\r\n    modifier onlyAdmin() {\r\n        require(msg.sender == electionAdmin, \"Only admin can call this.\");\r\n        _;\r\n    }\r\n\r\n    modifier hasNotVoted() {\r\n        require(!voters[msg.sender].hasVoted, \"You have already voted.\");\r\n        _;\r\n    }\r\n\r\n    constructor() {\r\n        electionAdmin = msg.sender;\r\n        totalVotes = 0;\r\n    }\r\n\r\n    function addCandidate(string memory _name) public onlyAdmin {\r\n        candidatesCount++;\r\n        candidates[candidatesCount] = Candidate(candidatesCount, _name, 0);\r\n    }\r\n\r\n    function vote(uint _candidateId) public hasNotVoted {\r\n        require(_candidateId > 0 && _candidateId <= candidatesCount, \"Invalid candidate ID.\");\r\n        \r\n        voters[msg.sender] = Voter(true, _candidateId);\r\n        candidates[_candidateId].voteCount++;\r\n        totalVotes++;\r\n        \r\n        emit ElectionResult(_candidateId, candidates[_candidateId].voteCount);\r\n    }\r\n\r\n    function getCandidate(uint _candidateId) public view returns (string memory, uint) {\r\n        return (candidates[_candidateId].name, candidates[_candidateId].voteCount);\r\n    }\r\n}\r\n",
  "sourcePath": "C:\\Users\\shubh\\DecentralizedVoting\\contracts\\Voting.sol",
  "compiler": {
    "name": "solc",
    "version": "0.8.21+commit.d9974bed.Emscripten.clang"
  },
  "schemaVersion": "3.4.16",
  "updatedAt": "2024-09-12T17:25:37.396Z",
  "devdoc": {
    "kind": "dev",
    "methods": {},
    "version": 1
  },
  "userdoc": {
    "kind": "user",
    "methods": {},
    "version": 1
  }
}